:100000000EC01DC01CC01BC01AC019C018C017C02C
:1000100016C015C014C013C012C011C010C01124E6
:100020001FBECFE5D1E0DEBFCDBF20E0A0E6B0E04F
:1000300001C01D92A236B207E1F787D0B3C0E0CF6E
:10004000FC019081862F809598239083ABECB0E0E3
:100050001197F1F700C00000908140FF65C0962B1A
:100060009083ABECB0E01197F1F700C000009081F5
:1000700041FF5CC0962B9083ABECB0E01197F1F799
:1000800000C00000908142FF53C0962B9083ABECE0
:10009000B0E01197F1F700C00000908143FF4AC023
:1000A000962B9083ABECB0E01197F1F700C0000005
:1000B000908144FF41C0962B9083ABECB0E0119748
:1000C000F1F700C00000908145FF38C0962B908367
:1000D000ABECB0E01197F1F700C00000908146FF53
:1000E0002FC0962B9083ABECB0E01197F1F700C0D6
:1000F000000047FF27C08081862B80838BEC90E037
:100100000197F1F700C000008081682B6083ABECA1
:10011000B0E01197F1F700C000008BEC90E0019780
:10012000F1F700C00000089598239ACF9823A3CF39
:100130009823ACCF9823B5CF9823BECF9823C7CFB1
:100140009823D0CF90818923D8CF80E886BD16BC74
:10015000C09AB89ABA9A87E886B913B882E093E051
:10016000C29887B9369A3699FECF24B135B130930B
:1001700061002093600097B9369A3699FECF44B15A
:1001800055B120916000309161002417350740F48B
:10019000C29AEFE1FEE43197F1F700C00000E0CF32
:0801A000C298F7CFF894FFCFDD
:00000001FF
